:020000041000EA
:10000000002008205D0100101B0100101D010010E0
:100010001101001011010010110100101101001058
:100020001901001019010010190100101F01001022
:10003000110100101901001021010010230100100E
:100040001101001011010010110100101101001028
:100050001101001011010010110100101101001018
:100060001101001011010010110100101101001008
:1000700011010010110100101101001011010010F8
:1000800011010010110100101101001011010010E8
:1000900011010010110100101101001011010010D8
:1000A00011010010110100101101001011010010C8
:1000B00011010010110100101101001011010010B8
:1000C00011010010110100101101001011010010A8
:1000D0001101001011010010110100101101001098
:1000E0001101001011010010110100101101001088
:1000F0001101001011010010110100101101001078
:100100001101001011010010110100101101001067
:10011000EFF30580103800BE00BE00BE00BE00BE7A
:1001200000BE00BEF2EB8871C0360010E836001049
:10013000A001001090A31AE7D3DEFFFF42012110B7
:10014000FF010000743A0000793512AB4FF0000057
:100150001E49086006C881F3088810474FF05040D8
:10016000006810B14FF00000F2E70DA40ECC00299A
:1001700002D000F012F8F9E71549164A002000E015
:1001800001C19142FCD11449884714498847144958
:10019000884700BEFDE701C901C29A42FBD3704700
:1001A000E836001010010020D4050020AC3B001000
:1001B0000000082000000820AC3B001000100820C0
:1001C00000100820000000007047000008ED00E06B
:1001D000D405002024110020AD170010A504001044
:1001E000A5170010F8B500BF0348044B834202D0A6
:1001F000034B03B118477047D4050020D4050020F5
:1002000000000000064B0749C91A891048BF013198
:10021000491003D0044B0BB101481847704700BF89
:10022000D4050020D40500200000000010B5064CC5
:10023000237843B9FFF7D8FF044B13B10448AFF359
:1002400000800123237010BD58070020000000002B
:100250001C33001008B5044B1BB104490448AFF32C
:100260000080BDE80840CDE7000000005C070020EA
:100270001C330010014801F0A9BF00BF7C0F002013
:10028000B1F5801F00D070476FF4807113680B4484
:10029000B3F5807FF7D80A4B10B459681C68481C26
:1002A000844209D001F07F01586003EB011303F190
:1002B000080C0FCA8CE80F005DF8044B704700BFB4
:1002C000740700202DE9F041052482B001F06CFB99
:1002D0000021214802F048FE20491F4802F062FE3A
:1002E0000F201F4900F0D8F901210F2000F002FB78
:1002F0001C4D01210F2000F0B9F904231A4A1B49B3
:10030000154800944FF0000705F1180602F04CFE66
:1003100055F8044B204600F001F947EC4440002218
:100320000121204600F0E6F8B542F1D14FF0010876
:100330004FF000070E4D05F1200655F8044B2046FE
:1003400000F0ECF848EC444047EC4040B542F4D1B2
:1003500002B0BDE8F08100BF7C0F002081020010D8
:10036000750200103C33001020A1070080D1F00876
:100370001C3300104FF05043F0B55A6887B09DF819
:100380000000C2F3802262F300008DF800005A687A
:10039000C0B2C2F3C02262F341008DF800005A6877
:1003A000C0B2C2F3003262F382008DF800005A68D6
:1003B000C0B2C2F3403262F3C3008DF800005A6845
:1003C000C0B2C2F3803262F3C7108DF800005A68E1
:1003D000C3B2C2F3C03262F304138DF80030DCB252
:1003E000022103F0010343EC40100321C4F3400257
:1003F00042EC4010042143EC4010052342EC403015
:1004000000F0CEFE61B300234FF47A7202F058FF81
:100410000346224A2006A2FB0323C3F3401335D42C
:10042000610722D553BB012242EC403043EC40200F
:100430004FF444720123CDE90223194F0DF1FF342B
:100440000DF10F050DF1070614F8013F384602A91A
:1004500005F8013F02F058FBB442F5D107B0F0BDFA
:100460000E4AA2FB00239B09D3E7220706D52BB92E
:1004700043EC4030012343EC4030D9E700221346DF
:1004800042EC4020012243EC4020D1E7002BF5D183
:10049000012242EC403042EC4020C9E7D34D6210CB
:1004A0007C0F002008B5FFF70DFFFFF763FF0A2060
:1004B00000F0D8FDF9E700BF10B44FF480740C4B86
:1004C00053F8202003EB8003C00082F0400200F1CB
:1004D000804003F5805C02F0C00200F5203003F597
:1004E0004053CCF8002041601C605DF8044B70471D
:1004F0000480034010B4084CC90041EA820154F85A
:10050000202004EB8003514003F5805301F00C01DF
:100510005DF8044B196070470480034030B44FF01D
:10052000000343EC440043EC400005254FF4807485
:100530000B4BC20053F8201003EB800081F0400108
:1005400002F1804303F5203301F0C00200F5805131
:1005500000F540500A605D60046030BC704700BF29
:10056000048003400FB400B583B0049C074801F039
:1005700063FA3CB105A92046019101F0F9F804485D
:1005800001F05AFA012001F00BF900BF54330010BA
:100590006433001070B58646EFF3108572B6124CC6
:1005A000D4E8CF6F0120002EFAD1C4E8460F002E08
:1005B000F6D1BFF35F8F4FF0010CC80801F00703BD
:1005C0000CFA03F31EF800C01CEA030608D14CEA3B
:1005D000030C0EF800C0C4E88F6F85F3108870BD5F
:1005E0001046FFF7BFFF00BF9F100020044A10789D
:1005F000431CDBB2182B28BF10231370704700BFB9
:10060000500500204FF0E022936843F000539360C0
:10061000704700BF0021044B03F12002C3E88F1F85
:1006200001339342FAD17047941000204FF0E02339
:100630004FF08032C3F80024C3F80424C3F8082420
:10064000C3F80C24C3F81024C3F81424C3F81824E6
:10065000C3F81C24C3F82024C3F82424C3F8282496
:10066000C3F82C24C3F8302462B67047012300F08D
:100670001F029340400941B1800000F1604000F545
:100680006140C0F8803103607047024A203042F870
:100690002030704700E100E0F8B50D46EFF3108719
:1006A00072B6124ED6E8CF2F0123002AFAD1C6E83F
:1006B000423F002AF6D1BFF35F8F0D4B00F11004CB
:1006C0009B680C4A53F82430934203D0994201D0DE
:1006D00000F030FF064B9B6843F82450BFF35F8F58
:1006E0000023C6E88F3F87F31088F8BD9D100020D7
:1006F00000ED00E0110100102DE9F04F83B0EFF3A1
:10070000108A72B6744ED6E8CF2F0123002AFAD190
:10071000C6E8423F002AF6D1BFF35F8F6F4B00F16E
:1007200010089B686E4A53F8285095423FD08D427E
:100730000C464AD06B4FEB1B2F2B38D801214FEAC8
:1007400050194FEA890909F1604909F5614900F03A
:100750001F0301FA03F0D9F80030C9F8800000EA5D
:10076000030BBFF35F8FEFF30581C9B279B38845FF
:1007700077D125F0010EDEF808C0644505D17CE094
:10078000D3F808C0644532D09E469EF9062002EB9D
:100790004203002A07EB8303F2DA644500F081800C
:1007A000BBF1000F20D0C9F88001C9F800004B4B05
:1007B0009B6843F82850BFF35F8F0023C6E88F3F44
:1007C0008AF3108803B0BDE8F08F1546EFE725F0F7
:1007D000010EDEF808C06445D7D19EF90640734685
:1007E000002C08DA154666E0C9F88000DFE793F9C7
:1007F0000640002C56DB04EB440C07EB8C0CDCF8B9
:10080000082061009A609CF80720DA719CF90620A4
:10081000002A9A715DDBBCF80420520504D502F56C
:10082000FF1202F5FF521F32521502F1020C4FF077
:10083000040E0C2212FB04E202EB4C026FF0070CD8
:100840003A44ACEB030C6244C2F34A0242F4604205
:100850009A80254B21441A7807EB81011C708A711C
:100860009EE7CDE9000100F065FEDDE9000125F01D
:10087000010EDEF808C0644587D19EF90640734634
:10088000002CB8DA194A1A4CD21A083AC2F30A31C3
:100890006FEA01516FEA115144EA5202DA809980FD
:1008A0007EE773460029EDD1FF228EF806204BF635
:1008B0000152AEF804200C4C4AF6AA2294F800C06B
:1008C0001946C91B49414A43120D83F806C02270DC
:1008D00066E74BF60152BBE79D10002000ED00E0FB
:1008E0001101001054050020201100208E05002069
:1008F00000F8FFFF4FF0FF0C20F0030303F160430B
:1009000003F5644300F003001A68C0000CFA00FC11
:1009100022EA0C0281400A431A607047F0B5EFF3F7
:100920000585EDB2EFF3108C72B62649D1E8CF2FD2
:100930000123002AFAD1C1E8423F002AF6D1BFF3D1
:100940005F8F214E40F0010EB4684AF6AA2354F896
:1009500025701E4A0446A41A644163431B0D774563
:100960005BB21BD092F906409C421CD092F9124017
:100970009C4223D092F91E409C4221D092F92A40F9
:100980009C4208BF03240FD0114A0024157813702D
:100990008571C1E88F4F8CF31088F0BDB2680D4CA3
:1009A00042F82540F0E7002404EB440402EB840203
:1009B000FF2494714BF601549480E5E70124F3E79A
:1009C0000224F1E79D10002000ED00E05405002016
:1009D0002011002011010010014B0B4403607047EF
:1009E00094100020F8B5124D124EB5421FD22C467D
:1009F0002368FF277BB1FFF7F9FD01462846FFF783
:100A0000EBFFA780BFF35F8F0834B4420FD2236897
:100A10002546002BEFD1FFF7E9FD01462846FFF7F9
:100A2000DBFF2771BFF35F8F0834B442EFD3F8BD0B
:100A3000CC050020D40500200D4B1A68EFF310817F
:100A400072B6D2E8CFCF0120BCF1000FF9D1C2E8D5
:100A50004C0FBCF1000FF4D1BFF35F8F00221B6875
:100A6000C3E88F2F81F3108840BF0020002170471A
:100A700014110020000000002DE9F04F2DED028B35
:100A800085B0EFF30583DBB2103B9A0818BF012253
:100A90004FF0010103F0030008BFAD4DAD4B18BF8F
:100AA000AD4D00EB820253F8226001FA00FB05F520
:100AB00041539FEDA58B0190C3F804B02EE0B3889D
:100AC000190440F19180B379002B40F0DB80B6F936
:100AD0000820002AC0F21A81736902EB420203EB7C
:100AE000C203D3E90247B7F1FF3F08BFB4F1FF3FAC
:100AF0000DD0019B05EB8301AB6A0A69D21AE31A98
:100B0000934203D32B6A13EA0B0F00D10C612846E2
:100B100000F03EFBA042B941C0F2F880B6F90830BF
:100B2000C5F83CB0002B0093C9DBD6F8149003EB5A
:100B3000430A284609EBCA07D7E9024800F028FB18
:100B4000A04271EB0801BADBB8F1000FC0F2C0801F
:100B50003A69824B9A4200F0EA807988B6F9080037
:100B600089B241EA00407969904703460A4653EA50
:100B7000020100F0AD80002A80F2CE80E31A68EB1B
:100B8000020839F93A20C7E90238002A97DB706970
:100B900002EB420100EBC101D1E902C7634578EBEA
:100BA000070E4FEA42018ADBB6462EF8082F0BE00B
:100BB00030F93120A646002A0DDB02EB420400EB9F
:100BC000C4045100D4E902C76345114478EB070718
:100BD00000EBC104ECDA009B29F83A20AEF80030B3
:100BE000B38819043FF56FAF3369EFF3108272B623
:100BF000D3E8CF0F01210028FAD1C3E8401F002815
:100C0000F6D1BFF35F8F4FF6FF74B08800233169D0
:100C100000B2B480C1E88F3F82F310889842FFF69B
:100C200052AF0746A946746906F1080807EB470E5C
:100C300004EBCE03D3E90205B6F90830C446002B15
:100C400013DBB246009704E034F936309446002BAB
:100C500009DB03EB430604EBC602D2E90271B8429A
:100C600075EB0101F0DA5646009FACF8007034F9DC
:100C70003E7024F83E30002FD8DAB3794D46002B71
:100C80003FF425AF0023B371B6F9083006F1080E22
:100C90005A1C3BD01A46746903E08646591C3FF43F
:100CA00018AF03EB430104EBC10047889C463F04A7
:100CB00034F93130F1D5944580ED028BEED0AEF8A9
:100CC0000030328924F831206246A6F808C0E5E7F2
:100CD00039F83A2032813269EFF3108172B6D2E8E6
:100CE000CF7F0120002FFAD1C2E8470F002FF6D1A5
:100CF000BFF35F8F7288009B29F83A2073803269B6
:100D00000023C2E88F3F81F31088D8E640BF05B0CA
:100D1000BDEC028BBDE8F08F2846CDE9023200F031
:100D200037FA029B039AC31842EB010829E7796955
:100D300008460A69029190470028C9D00299D1E972
:100D4000003214E7AFF30080FFFFFFFFFFFFFFFF5C
:100D500000000B40F410002000800B40790A0010C6
:100D60002DE9F84F364C25692DB1BDE8F84F0A2121
:100D70003448FFF731BEDFF8E4800321404600F03D
:100D8000F5F90326C4F80C80FFF730FC4FF0504C07
:100D90002D4B267003442361DCF800300F21637073
:100DA000636961801D834FF00405A3F878504FF00C
:100DB0000505A3F890504FF00605A3F8A8504FF092
:100DC00007050E2108274FF6FF724FF00A0EA3F811
:100DD000C0504FF001094FF00C0C4FF0020B4FF0D8
:100DE000090A0D204FF00B05A3F868111749A280DE
:100DF000A3F808E1A160A3F848B0A3F8F0A0A3F815
:100E00002051A3F838C1A3F85001A3F83090A3F8FB
:100E10006060A3F8D8701A800D4B3046C8F8207077
:100E20000C49DC60FFF738FC49463046FFF71EFCF2
:100E3000094B0A211F640348BDE8F84FFFF7CCBDFA
:100E40009C0500201411002094100020FFFF1000CA
:100E5000F4100020790A001000200B4000000B4025
:100E60000146F0B50069EFF3108772B6D0E8CF5FA6
:100E70000124002DFAD1C0E8454F002DF6D1BFF373
:100E80005F8FB1F902E04C690EEB4E0CBEF1000F22
:100E90004FEACC0504EBCC0C3DDB605B00264880C0
:100EA0000869C0E88F6F87F31088BCF80200CCE9AE
:100EB00002230130C0F30E00012838BF0120059B3A
:100EC000ACF80200CCF81030069B40EA0E40CCF89B
:100ED00014300B69EFF3108272B6D3E8CFCF01273D
:100EE000BCF1000FF9D1C3E84C7FBCF1000FF4D185
:100EF000BFF35F8F8B886353A1F804E00B69C3E8ED
:100F00008F6F82F310880122CB68097803F50153B3
:100F10008A405A60F0BD00230A69C2E88F3F87F318
:100F200010884FF0FF30F0BD03464089B0EB214FF1
:100F300037DD58690A1402EB420210B500EBC2001B
:100F40001C69EFF3108C72B6D4E8CFEF0122BEF12A
:100F5000000FF9D1C4E84E2FBEF1000FF4D1BFF35A
:100F60005F8F428889B292B28A4207D000221B6901
:100F7000C3E88F2F8CF31088002010BD42F400428C
:100F800042800121002218699971C0E88F2F8CF3EB
:100F900010881C78DA68084602F50153A1405960B0
:100FA00010BD0020704700BF2DE9F041861F41F1C0
:100FB000FF35B04271EB050338BF002682B038BF61
:100FC000354604460F4600F0EBF8301A65EB010396
:100FD000012873F1000306DA2046394602B0BDE865
:100FE000F04100F015B900F0DBF8864265EB010135
:100FF00000290ADB0021174B3246009316482B4686
:101000000191FFF72DFF0028E6DB4FF0000C13489D
:10101000134A436A9D4204D8816AB142DCD29D42A0
:10102000DAD11368EFF3108172B6D3E8CF8F5FF097
:10103000010EB8F1000FF8D1C3E848EFB8F1000F86
:10104000F3D1BFF35F8F1368C3E88FCF81F31088AC
:1010500020BFDEE7390A00109C05002000000B408D
:101060001411002010B5044600F09AF84FF47A737A
:101070004FF0FF3C6FF00042E4FB0301BDE810407D
:10108000844572EB01033CBF60461146FFF78CBFFD
:101090002DE9F04306460D4683B0EFF30584E4B234
:1010A00074B12F4B586A884203D2002003B0BDE8C8
:1010B000F0839B6AB34248D3012003B0BDE8F083BC
:1010C000284FD7F80C9097F80080484600F060F859
:1010D00008F1040859F828301B1A301A65EB010191
:1010E000984271F100010DDB20BF1D4B586A85420B
:1010F000DBD89B6AB342DFD2281A18BF012003B0A5
:10110000BDE8F08300F04CF8864265EB0101002950
:1011100013DB154B3846CDE9003432462B46FFF73A
:101120009FFE011E09DD0E4B5A6A954215D89B6A37
:10113000B34210D30B48FFF7F7FE094B586A8542BC
:10114000B3D89B6AB342B7D2D6E7401A18BF012082
:1011500003B0BDE8F0839542ECD120BFEAE700BFC1
:1011600000000B409C050020390A001010B4054B0C
:10117000054C064AA04214BF1846581C5DF8044BA3
:10118000FFF708BABC10002000800B406833001045
:101190000346416A0A46986A596A8A42FAD17047F8
:1011A000034B596A0A46986A596A9142FAD17047C4
:1011B00000000B4030B4154A536A9C46946A536A47
:1011C0006345FAD1021959414FF0000528BF0125A6
:1011D0000E4B5B6AB5B15A1C08BF1A4608D04FF0D7
:1011E000FF310A460948436A8B42FCD38B4207D140
:1011F000064902E0486A984202D1886A9042F9D3CF
:1012000030BC70479942EDD8F0E700BF00000B40BA
:10121000074A536A9942FCD8994207D1044B02E02D
:101220005A6A914202D19A6A8242F9D3704700BF4A
:1012300000000B40F8B5054606200E4600F0E4F825
:10124000002842D0354A364895420CBF4FF0006224
:101250004FF08062334B344902601A608C6832EA86
:101260000404FBD12D4B4FF48071EB1AB3FA83F3D6
:101270002E4A5B09062022F8131000F0C5F8C300BF
:10128000B3FBF6F30133DA0920D14026012169626C
:10129000AA622F6BFB0722D42B46002253F82C1F87
:1012A000062003F5805422602F6300F0ADF8EB6A4E
:1012B00040F2013283F0700303F07E03236080006C
:1012C0000323B0FBF6F02A63AB64F8BD4FF6FE7162
:1012D0008A421BD922464FF6FF71154ED7E740F2DE
:1012E000013205F540531A636B6AAC6A062004EBC1
:1012F000831400F089F80F4BA402A3FB0023DB0A40
:101300000021B4FBF3F0FFF755FFC5E7C3F3450336
:10131000114603EB82161A46B9E700BF008007406A
:10132000002002400030024000000240181100205E
:10133000C0FF3F00757B2B8F00EB400C4FEA8C0CFD
:101340000CF1804C0CF5803CF0B51646DCF804201E
:10135000051FB2F5803F38BF4FF48032EDB238BF81
:10136000CCF80420012D2AD94FF40067254C0CF548
:101370004052176054F82020B2B9DCF80020012D4B
:1013800082EA461202F0E0020CF5805632602AD959
:101390004FF4006144F820304FF480330CF50052D4
:1013A0001160CCF80430F0BD6769B7FBF2FE0EF1B6
:1013B000010E0EEB4E0EBEF1030EFCD2DDE701294D
:1013C000D2D103240CF540521460DCF80820D20777
:1013D000FBD5DCF800200B4C82EA461202F0E0025A
:1013E0000CF5805632600122DCF800504D4005F0CB
:1013F0000305356002FA01F1DCF808200A42FBD04F
:10140000C6E700BFC0100020014B53F82000704712
:10141000C010002070B4039D04682D0345EA034505
:101420001B4B002CB3FBF1F3B2FBF3F61FDB194AA5
:10143000194B90420CBF4FF400424FF48042174CBE
:101440001A6003F580531A60A36832EA0303FBD1E4
:10145000212200F540530433016086601A6002685F
:10146000002AFCDA0822C5601A6070BC7047036865
:1014700003F03F038B42DAD18368C3F30B03B3421B
:10148000D5D1C36803F4EE23AB42D0D1EDE700BF62
:10149000001BB70000800540002002400000024011
:1014A000012300EB4000800000F1804000F5841033
:1014B00041600360704700BF0023DB8A002242E8DE
:1014C00000F2520201D4102118470421184700BF2E
:1014D000034AD2F82838002BFBD0BFF35F8F704748
:1014E00000000E400021044B044ABFF35F8F43F815
:1014F000041B9342F9D170470C080E402C080E4093
:1015000010B44FF48D704FF42A64064A064B074915
:101510001460D06019605368002BFCDA5DF8044B4E
:10152000704700BF0080044000A0044000B0FA00F3
:10153000704700BF08B50148FFF714F88C3300105E
:1015400038B5054C054DAC4204D254F8043B9847DD
:10155000AC42FAD338BD00BFD832001018330010A7
:1015600010B40748074C084B084A094904601A6040
:101570008B6832EA0303FBD15DF8044B704700BF70
:10158000002002407F3BEFEF00300240F6FFF30304
:1015900000000240044BDB6CB3F5004F03D14FF465
:1015A0008022024BDA647047000011500020115075
:1015B0004FF0E022044BD2F8881D0B43C2F8883D5F
:1015C00010EE3004704700BF030330006FF060413D
:1015D000044B054A19609368DB4333F06043FAD14A
:1015E000704700BF003002400000024010B545F2D5
:1015F0005320FFF761FFBDE8104003460420184761
:1016000010B545F25320FFF757FFBDE810400346E1
:1016100001201847FEF7FEBF70B51749174C184E4A
:10162000641AA510442D2A4628BF44223046920051
:1016300001F04AFDB4F5867F1AD86B1C442BC5F126
:101640004401104A88BF012110D8B4F5867F0DD01F
:101650003319480803EBC0001A605A60083383420C
:10166000FAD1CB0704D521F001010D4446F825201D
:10167000054B9E6070BD00BF0000001010010010FF
:10168000000000201101001000ED00E00023F0B583
:101690002B4C83B0C4F88430FFF732FF0122294B72
:1016A000DA63636C012BFCD10321264A244B1163BE
:1016B0009D6B012DFCD1052302271E4600242946DF
:1016C000214A22480097FFF7A5FE29463346204AC3
:1016D00020480096FFF79EFE3946224604201E4B06
:1016E000FFF72AFE2946224630461C4BFFF724FE10
:1016F0002246082021461A4BFFF71EFE22460920EB
:101700002146174BFFF718FE224606202146134BB1
:10171000FFF712FE114B224607202146FFF70CFE71
:101720000420FFF771FE0F4BA3FB0035AD0CE0B2B8
:1017300029460134FFF7B4FE062CF8D103B0F0BD02
:101740000000014000300140002F685900000540B2
:10175000008C864700800540001BB70080D1F00850
:10176000006CDC0283DE1B4300B9704700F022B935
:1017700010B5094B84B01C684CB1034600914FF082
:10178000FF3203A90548A047012004B010BD00F0B6
:1017900053F9204604B010BDF01000206917001066
:1017A00000BEFDE708B5FFF7FBFF00BF38B5064DEB
:1017B000064CFFF7C5FEAC4204D254F8043B9847F0
:1017C000AC42FAD338BD00BF1C33001018330010F0
:1017D00003680846114618472DE9F04F437D8246BD
:1017E0008846174681B0002B47D0002A24DD00240C
:1017F00001252046DFF894904E1E04B3737806F15D
:10180000010B0A2B26D02B465E46BB4204F1010495
:1018100005F10105F1DB874204DD391ADAF8003001
:1018200040449847B84418F8013CA3F10D03B3FABB
:1018300083F35B098AF8143001B0BDE8F08F737848
:1018400006F1010B0A2BDED19AF8143063B15E4623
:101850002B46DAE733780D2BF9D0A04204DA211AAF
:10186000DAF80030404498474846DAF80030022160
:1018700098475E4628462B46C7E711464046DAF8A9
:10188000003001B0BDE8F04F184700BF2C34001005
:101890002DE9F04782B00D46924699460746FFF77C
:1018A0007FFC4FF0FF366FF000442F4A821841F161
:1018B0000003964274EB03013CBF324623462B489B
:1018C00001F006FD6B1C804603D1384601F0C6FCD2
:1018D0000546274B274E1C68274BB9F1000F18BF50
:1018E0001E46B4B1BAF1000F1AD1DFF8909001E0B2
:1018F000246974B12368002BFAD0D9F800300BB1F9
:10190000A342F5D120462A463946B0472469002C27
:10191000F0D1B8F1000F1FD1284602B0BDE8F08722
:101920004FF00A0ADFF8549002E02469002CF0D04E
:101930002368002BF9D0D9F800300BB1A342F4D1C1
:1019400020462A463946B047204601220DF10701BC
:101950008DF807A0B047E8E7044801F0B5FC284639
:1019600002B0BDE8F08700BF40420F00CC05002068
:10197000E8100020D1170010D9170010EC1000203B
:10198000084A136823B90AE003F110021B6933B156
:101990009842F9D129B9036913600161704701B117
:1019A00010607047E810002008B500F02FF9012002
:1019B00008BD00BFF0B583B006468DF80700FFF7FD
:1019C000EFFB4FF0FF356FF00044174A821841F1EA
:1019D0000003954274EB03013CBF23462A4613489B
:1019E00001F076FC124B07461C689CB1114D01E0DA
:1019F00024697CB12368002BFAD02B680BB1A34279
:101A0000F6D1204601220DF10701FFF7E5FE24691A
:101A1000002CEFD117B9304603B0F0BD034801F0F8
:101A200053FC304603B0F0BD40420F00CC0500200F
:101A3000E8100020EC10002038B5044601F00EFC40
:101A4000012305461A4620462946FFF721FF084B89
:101A50001C682CB163682BB198472469002CF9D11C
:101A6000284638BD2469002CF4D1284638BD00BF73
:101A7000E8100020B1F1000C1DDD0F4A0F4B126879
:101A800030B5D31AB3FA83F30D240D4D5B09411E13
:101A900035F913E08C4411F8010F864506D093699F
:101AA0009B06FCD461451060F5D130BD93699D065D
:101AB000FCD41460F3E770471C110020008007403D
:101AC00018110020B1F1000C03462DDD00201F4A43
:101AD000591E12689369DB0617D401309369DB063F
:101AE000FCD41368844501F8013FF3D1184B1B68FF
:101AF0004BB150211346916353F8342F02F0380252
:101B000003F580531A6060467047114B1B684BB158
:101B100050211346916353F8342F02F0380203F535
:101B200080531A6078B17047094B1B685BB1074B53
:101B300050211A681346916353F8342F02F038028B
:101B400003F580531A606FF0020070471C110020EB
:101B5000B4100020054B1B6833B10021044A05482E
:101B60001268006891631847704700BFB4100020E6
:101B70001C110020B8100020024B1A6893691B0743
:101B8000FCD470471C11002070B51B4E1B4D3268F1
:101B90000446AA420CBF2225212520B1184A0B4633
:101BA000116889B170BD164E3368002BFAD001461A
:101BB00090632846FEF75AFD28461249FEF79CFD21
:101BC000114B34601C6070BD10600F4A28460D49EF
:101BD0001360FEF761FD01212846FEF747FD3268DC
:101BE00050211346916353F8342F02F0380203F565
:101BF00080531A6070BD00BF1C1100200080074098
:101C0000B4100020551B0010B810002010B50E496C
:101C10000E4C0F480F4A104B007821600020022123
:101C200012781B78FEF748FC02210120FEF744FCE5
:101C30004FF4E1312068FFF7FDFABDE810400121C3
:101C40000648FFF79DBE00BF000007401C110020A2
:101C5000E4360010E0360010DC360010B405002039
:101C60002DE9F04F4FF47F674FF0FF36FF25022438
:101C7000002243686F491F609E601D635C6302F130
:101C8000120431F8025F0132202A43F82450F6D1C1
:101C900082681F2A00F38380C16800261F29CCBFF9
:101CA000012400244EF2800B4FF0690A48F2A0098B
:101CB0004FF006084EF2806E4FEA0410A2EB0414B7
:101CC00004F01F054FEA05674FEA451545F08065AA
:101CD00047F44247C3F8CC704FEAC434C3F8DC5031
:101CE000554D04F47824C3F8D8B0C3F8DC60C3F8C9
:101CF00010A0C3F8D890C3F8D880C3F8E4E0C3F8C4
:101D0000F440C3F8E860C3F8E8504FF00D05C3F89D
:101D1000F0504A4D4FF0120CC3F8FC50C3F80C4180
:101D20004EF24004C3F80061C3F808414AF2E204ED
:101D3000C3F808414AF22A04C3F80841C3F808C1AD
:101D40000DDC12063E4C02F0F85242F4C632002975
:101D5000C3F81421C3F818410CDA002211E0103A3C
:101D60001206374C02F0F85242F4C632C3F814217E
:101D7000C3F818410A1A02F01F0202EB421242F0A5
:101D800082624EF201044EF281000721C3F8242141
:101D9000C3F82041C3F820011960BDE8F08F103A64
:101DA00002F01F010D06490141F0806445F44245EF
:101DB000C168C3F8CC504EF2800BC3F8DC404FF042
:101DC000690A002448F2A0094FF006084EF2806E1E
:101DD0000D271A4E184DD00300F47820C3F8D8B060
:101DE000C3F8DC40C3F810A0C3F8D890C3F8D8807B
:101DF000C3F8E4E0C3F8F400C3F8E840C3F8E850DF
:101E0000C3F8F070C3F8FC60C3F80C014EF2400058
:101E1000C3F80041C3F808014AF2E2004FF0120C87
:101E2000C3F808014AF22A00C3F808011020C3F8D9
:101E300008C186E7763600100000A1808086010088
:101E40000000024030B5436804469A6885B09207A6
:101E500012D4092500222020A16DA563E26220632F
:101E600009B1A2659A614AF2271140F2023219655E
:101E7000C3F8702105B030BD002545628562456319
:101E8000FFF7EEFE23696A464FF400012046CDE9D4
:101E900001550095039598476368DAE7C36D012BF8
:101EA00056D02DE9F041036E426E93420ED10024CC
:101EB00002224168C4650A63BFF35F8F416E8B42A3
:101EC00008BF4FF400705AD1BDE8F08141684FF06F
:101ED0002C0801254FF0070E4FF0870C0C27002629
:101EE00046F2210403F0030308FB03F3C269C5654E
:101EF0002A44C261C218D26F224D8033C1F800E07B
:101F00001844C1F800C00F63C1F81861C1F8185136
:101F1000C1F8AC4042B100EB8202043A043850F8F8
:101F2000043F9042CB61FAD14EF2010546F2210402
:101F30001B204FF403520F23C1F82051C1F8204158
:101F4000C1F82001C1F8202100200B60BDE8F0811C
:101F50004368D3F81C21182A0CD0DA6812F0706F8D
:101F600006D1D3F86C3103F48173B3F5807F98D038
:101F700000207047D3F86C319B0792D5F8E7416891
:101F80004A63A4E7000002404FF0010CF0B50CFAE0
:101F900002F30468013B194094400C4384EA540165
:101FA00041EA510141EA91018B4325D04FF0004EA7
:101FB00002E036EA03031FD0B3FA83F3C3F120052E
:101FC0000CFA05F1013901EA0407C3F11C062EFAE7
:101FD00003F37B4024EA510183EA410484EA540379
:101FE0000CFA06F643EA5303042D02F1010206F14E
:101FF000FF3643EA9303DCDC4168866801F01F0387
:10200000C3F120054F09954206EB870E0BD356F816
:102010002730AD1A04FA05F52B43114446F8273052
:10202000C0E90041F0BDC3F1400CDEF80450ACEB58
:10203000020C04FA0CFC203B45EA0C05134456F84C
:1020400027C024FA03F343EA0C031144CEF80450EA
:1020500046F82730C0E90041F0BD00BF2DE9F04748
:102060000446C06BD4E90915C0F30E00E94040EA0C
:10207000C13181EA510343EA530343EA9303DB434B
:102080009BB24FF0100C666B84B0E06343B34FF02B
:10209000010E4FF0004701E0934321D0B3FA83F3E0
:1020A000C3F120080EFA08F2013A01EA0209C3F16D
:1020B0001C0A27FA03F321EA520289EA030989EA92
:1020C000420181EA51020EFA0AFA42EA5202B8F1DA
:1020D000040F0CF1010C0AF1FF3342EA9202DBDC3F
:1020E000E36D013E761B490041F001016644012B7E
:1020F000C4E9101609D12C22236E03F0030302FB5E
:102100000343A26C9D6E954211D00120022140F242
:1021100002326368A0655963C3F87021052100226B
:102120001023A163E262236304B0BDE8F0879A6FD5
:10213000904203D1D86EE26C90422DD06368226A3F
:102140009968013222628A0713D4092500222020CF
:10215000A16DA563E262206309B1A2659A614AF2AA
:10216000271140F202321965C3F8702104B0BDE8AE
:10217000F087002520466562A5626563FFF770FD64
:1021800023696A464FF400012046CDE901550095C8
:10219000039598476368D8E7186F226D9042CDD1B8
:1021A0005A6F636D9A42C9D1022503204B02C6F5CE
:1021B000FE66C3F314030736626843EA465343F0EE
:1021C000FF03A565E0659361A8E700BF2DE9F04F27
:1021D0000446466885B0D6F87821970740F18A8092
:1021E0000A270125726A636AC2F3090242EA83225E
:1021F000636B216B3B4462626363A76282EA5203B2
:1022000043EA530343EA9303DB436FB38F42B84679
:1022100028BF8846A7EB080C05FA08FE0EF1FF3E22
:102220000CF101000EFA00F0184024D122FA0CF350
:10223000E06AA1EB080103EA0E038B40034321632C
:10224000C4F828C0E36279B9A06B092800F2588469
:10225000DFE810F0990168011901DC00B901BD0047
:10226000A901A50084007300D6F87821002AB4D112
:1022700005B0BDE8F08FB0FA80F0A7F11F0C604404
:102280003F1A05FA00FC091A0CF1FF3C22FA07F08C
:102290000CEA000CE06A0CFA01FC013F40EA0C0079
:1022A000E06205FA07F003422163A762ADD010EAAD
:1022B0000208A36B40F0E781092B00F0E982236A52
:1022C0006168013323628B689B0700F1E682092372
:1022D000A363202300202363A36DE0620BB1A065FC
:1022E00088614AF227130B6540F20233C1F870315E
:1022F000202183E7150500F1A281500500F19381AB
:1023000012F4807340F0B3819205B1D540F20231EE
:102310006268D2F870518D4203D1A16D012900F09D
:1023200048832046FFF7BAFD25F40075626805432F
:1023300045F00205C2F870519AE761688B689B0707
:1023400000F1C3810923A363202300202363A36D2D
:10235000E0620BB1A06588616746C2E71F2B00F001
:1023600071821B2B40F2A381A36D002B40F0E88209
:102370006068836813F0020340F0C4820922E362BC
:102380002023A26323634AF2271CD4E9092740F2E1
:102390000233C0F850C02021C0F870312EE70F2B57
:1023A000616840F08B818B6813F0020340F08681F6
:1023B000E36201230820052103FA0CF3A063581EF1
:1023C000024042EA430267462163626216E7E16B1C
:1023D000490041F001018B4240F06F81A36D022B57
:1023E00004D140F202516368C3F870110620012342
:1023F000A0630020022103FA0CF3E062581E0240A1
:1024000042EA4302674621636262F7E6E76C032F04
:1024100040F2A6811946D4F83CE0CEF3C718C24872
:1024200088EA136830F8188088EA0E2E4FEADE1822
:1024300088EA13485FFA88F830F8188088EA0E2E88
:1024400009BA21654FEADE1181EA1321C9B230F8D9
:102450001110042F81EA0E2183EAD113DBB230F888
:10246000133083EA0123E36355D90423072F88BF80
:102470002021A3634FF000039CBF043FF9002163B8
:102480006746E362BAE6D4F848E0A748CEF30731DE
:1024900030F811904FEA0E514FEAD91787EA1E170C
:1024A000FFB230F8178001F4700188EA0928194357
:1024B0004FEAD81787EA1147FFB230F8179089EA38
:1024C00008294FEAD91787EA1127FFB230F8178099
:1024D00088EA092881EAD817FFB230F81710934824
:1024E00081EA0821E1634FEA4E3100EACE2001F48F
:1024F0007831014313F0300041EAD3117FF41DAF6E
:10250000C4E914005F0603F00F00E06440F151815C
:1025100041F04041A1642046FFF7A0FDD4E909271E
:10252000216B6BE6A76C43EA474703F06003602B1F
:1025300000F052817C48C7F3074330F813E0C7F33B
:10254000CA114FEADE1383EA1723DBB230F81330E7
:1025500083EA0E2387EAD31E5FFA8EFE30F81E0050
:1025600080EA0323E36317F0300340F0AF81C4E94E
:102570001433780607F00F03E36440F1B98141F0AA
:102580008041A164C7E7674611214FF4817E012095
:102590004FF0000CA3646368C3F870E1A063C4F853
:1025A0002CC021632AE6012B40F01F81A36D13B1DB
:1025B00043F00403A36507230421A36300236746B4
:1025C0002163E3621AE6E16CE26B072940F2E080E6
:1025D0001F46C2F3C711544881EA136130F8111045
:1025E00081EA0222D10981EA1341C9B230F81110FF
:1025F00081EA0222D10981EA1321C9B230F811100F
:1026000081EA022283EAD213DBB230F813303FBAF8
:1026100083EA0222E26367652046FFF71FFDD4E9E3
:102620000927216BEAE5A36D002B63D12046FFF754
:1026300035FC636840F00200C3F8700118E6D4E985
:1026400010321B02C2F5FF62C3F31403616843EA50
:10265000425343F07F038B612046FFF71FFC636802
:1026600040F4A06040F00200C3F8700100E6A36DE2
:10267000002B5DD12046FFF711FC626840F002009C
:10268000C2F87001F4E5092B02D0002B40F0118252
:1026900022FA07F3DB4300F0FE81C3F30903002BAA
:1026A00040F014810121A363E3622163A6E5172BA7
:1026B00003D9A36D99077FF558AE6168236A01338A
:1026C00023628B6898077FF53DAE0027204667623E
:1026D000A7626763FFF7C4FA6A464FF40001204619
:1026E000CDE901772369009703979847D4E9092C2E
:1026F000616827E64EF22A1143F004036268062B54
:10270000A365116500F03E8163694FF480110133C8
:1027100020462569636104F14802A84700236268E6
:10272000A365936182E700BF783400100000FC1FAE
:10273000590710D54EF22A116268062B116500F078
:102740006E8163694FF4801101332046256963610E
:1027500004F14802A84700236268A365936189E7F2
:10276000022FD4F83CE000F00A81032F00F004812E
:10277000012F7FF452AE83EADE12BB48D2B230F8AA
:1027800012201B0682EA0E221BBAE2632365C2E610
:102790000629A1F1040000F00981032800F003815B
:1027A000012800F0FD80C700C7F1200703FA07F7F2
:1027B0000FE741F00041A16400283FF4ACAE13F0F4
:1027C0000C0F07D1C1000323A363002367462163D5
:1027D000E36213E52021F6E702231421A36300231B
:1027E000A76421636746E36208E50121206CD4F801
:1027F00004E043EA8000236ADEF808700B44236299
:1028000001FA0CF3013B00FA0CF0134040EA03021A
:10281000BF07626200F111810923A3632023002115
:102820002363A36DE16213B1A165CEF818104AF2DB
:102830002713CEF8503040F2023367462021CEF8FD
:102840007031DBE4A36DE3B1580710D54EF22A11C5
:102850006268062B116500F04581D4E904730133E9
:102860004FF480112046636104F14802B847D4E96F
:10287000092C002140F202206368A1659961C3F828
:102880007001002301216746A363E3622163B5E47D
:1028900061688B6898077FF51AAD2046C4F82480DC
:1028A000C4F82880C4F83480FFF7DAF96A464FF498
:1028B00000012046CDE901882369CDF80080CDF8DC
:1028C0000C809847D4E90927616800E5606883684F
:1028D0009F0700F1CD80092300222021A363A36D6F
:1028E0002163E262002B3FF44EADA26582614AE5AE
:1028F000A164002B3FF40FAE17F00C0F7FF46AAF0A
:10290000D90060E7002720466762A7626763FFF788
:10291000A7F96A46204623694FF40001CDE9017703
:102920000097039798470922A2632022A36D60684D
:10293000E7622263002B3FF426ADA765876122E59D
:102940005F0710D54EF22A116268062B116500F060
:10295000BB80D4E9047301334FF4801120466361D6
:1029600004F14802B847002340F202226068A365E0
:102970008361C0F87021FCE43B48190256E53A48EF
:1029800019045DE5236E5A1CA369226601334FF4D6
:10299000001120462569A36104F14802A847BDE65D
:1029A00031481F062EE630481F021BE62E481F0442
:1029B00020E6D4E910104042C1F3140141EA40512D
:1029C0000220E06507204FF00C0B106087204CF2CE
:1029D000230610606FF00045C2F830B04EF2010ED1
:1029E000C2F8183146F2210C42F2C20A4FF00F0928
:1029F00040F602181B231D4FC2F81871C2F8AC60D4
:102A0000D561C2F820E1C2F820C1C2F82031C2F875
:102A100020A1C2F800909161C2F8708128E4236E71
:102A20005A1CA369226601334FF400112046256920
:102A3000A36104F14802A8478DE60027204667629B
:102A4000A7626763FFF70CF96A464FF4000120465E
:102A5000CDE901772369009703979847D4E9092CBA
:102A6000D4F804E0D8E600BF78340010000002403B
:102A7000002720466762A7626763FFF7F1F82046E8
:102A80006A464FF40001CDE9017723690097039767
:102A9000984760681FE720466362A3626363FFF79D
:102AA000DFF82046FFF7CEF9D4E90927216BFFF7BD
:102AB000A5BB236A204601332362FFF7C3F9D4E99B
:102AC0000927216BFFF79ABB236E5A1CA369226664
:102AD0000133A3614FF400112046236904F1480239
:102AE000984740E7236E5A1CA36922660133A3610D
:102AF0004FF400112046236904F148029847B6E6D6
:102B00006746FFF77BBB00BF2DE9F04F036E8BB02C
:102B1000426ED31A032B059200F21C82C36806464C
:102B2000002BC0F217820B6802F00302002BAABF31
:102B3000D74823F0005018402C2303FB026398660B
:102B400003924A6802F00F02DA66430000F18081C6
:102B5000082A28BF082214464FF02C0800254FF001
:102B6000010A4FF0000B039B224608FB03F808F113
:102B70007000355030440831456000F0A5FA08F186
:102B800080017318755004935D609D60DD601D6168
:102B9000089306EB0803D3E91A20130E03F0400351
:102BA000AA42CDE906AB43EA0003C0F28C81B948E2
:102BB000DFF8E49200EAC2101843C0F3120343F4B2
:102BC000002383EA530242EA520242EA9202D243CB
:102BD000C0F3074539F81570C2F31202FD0985EA02
:102BE0001025EDB239F8155085EA072780EAD7108D
:102BF000C0B239F8105085EA0725002A00F0A781F5
:102C000013274FF0010E4FF0004BCDE9014502E0D4
:102C10003CEA020220D0B2FA82F2C2F120050EFA9A
:102C200005F00138C2F11C0C03EA00042BFA02F291
:102C3000544023EA500384EA430383EA53020EFA22
:102C40000CFC42EA5202042DBA460CF1FF3C07F19B
:102C5000010742EA9202DBDC202FDDE9014540F268
:102C60007181AAF11F0223FA02FCC7F14000049A05
:102C700003FA00F0506046F801C0002C64D04FF019
:102C8000010E4FF0004006F16F024244224408F169
:102C90006F08049C0292B04418F8012F4FF0080A04
:102CA00042EA032383EA530B4BEA5B0B4BEA9B0B91
:102CB0006FEA0B0B82EAD512D2B239F812201BF060
:102CC000FF0B82EA052527D0DC46019402E03CEAAE
:102CD000020C20D0BCFA8CFBCBF120040EFA04F2DB
:102CE000013A02EA0301CBF11C0C20FA0BFB23EAA8
:102CF000520381EA0B0181EA430383EA53020EFA8D
:102D00000CFC42EA5202042C0AF1010A0CF1FF3CCD
:102D100042EA9202DBDC019C07F01F02C2F1200BA9
:102D20007909D34504EB810CC0F0948054F821203C
:102D3000ABEB0A0B03FA0BFB42EA0B0244F821202F
:102D4000029A57449045A7D1C5F30E0545EAC3330F
:102D50002C2183EA530242EA520242EA9202D2430F
:102D60000398C2F30E0201FB00618D670F2542B389
:102D70004FF0010C4FF0004E02E034EA020220D086
:102D8000B2FA82F2C2F120000CFA00F10139C2F16C
:102D90001C0403EA01082EFA02F223EA510188EA30
:102DA000020383EA410383EA53020CFA04F442EA81
:102DB0005202042805F1010504F1FF3442EA9202AF
:102DC000DBDC07F01F02049CC2F120017809A94254
:102DD00004EB800C62D354F82020491B03FA01F164
:102DE0000A433D440693EB4344F8202001206F0939
:102DF00005F1200154F8272003F01F03054421F0BA
:102E00001F0C00FA03F31A43BCEB050307954FEAC6
:102E1000511144F827200AD001F18042013A00FA0A
:102E200003F354F82200013B184344F822002C23FA
:102E30000398059A03FB00630132D9677266BFF3FA
:102E40005F8F0222002073685A630BB0BDE8F08FD9
:102E5000002481E6A2F1200BC2F14002A2EB0A029B
:102E6000D344574403FA02FA54F8212023FA0BFB07
:102E70004BEA020BDCF8042042EA0A02CCF80420F8
:102E8000029A44F821B090457FF406AF5CE700BF9A
:102E9000FF07004080FF030078340010C2F1400EAD
:102EA000DCF80410AEEB050E03FA0EFE203A41EA00
:102EB0000E012A4454F820E023FA02F2CCF8041060
:102EC00042EA0E028DE72549C2F3443001EAD221DD
:102ED000DFF890900143080B39F8105041F0600181
:102EE000E80980EA11101E4FC0B239F8100007EA55
:102EF000C2171F430B0580EA052003F470033B4310
:102F0000C20982EA1342D2B239F8122082EA0020C2
:102F1000C20982EA1322D2B239F8122082EA0022D0
:102F200083EAD213DBB239F8135006A885EA0225EA
:102F30001322FFF729F839461422FFF725F8DDE9B7
:102F400006379AE6C7F1200203FA02FC93E60D2247
:102F50001327F9E74FF0FF3077E700BF80FF03004A
:102F600080FF0F007834001038B50D464FF48C7296
:102F70000021044600F01EF9002D14BF0123002398
:102F8000236002D1054B636038BD054B022D6360A1
:102F900004BF03F58013C4E9005338BD000020507E
:102FA0000000305001617047F0B50F2B85B01D4611
:102FB00004460A9E64DC202EA8BF4FF0FF36002393
:102FC0002068C4E902566362A3626363002854D098
:102FD00002280CBF4FF400504FF48050364E336837
:102FE000034205D0354B1860B3681842FCD0A56881
:102FF000C900B1FBF2F2666812021F2DC6F8C820A4
:10300000C6F8E020C6F8F820C6F810213FDCE368D7
:103010001F2BD4BF002301231B0168272046C6F8BD
:103020006831FEF71DFE23682549264A01EB85001D
:10303000063302EBC50547606B60E068002806DBDD
:1030400001EB800102EBC002602048605360B3686E
:103050009B071ED4092000232021A26DA063E362F8
:1030600021630AB1A365B3614AF2271240F2023329
:103070003265C6F8703105B0F0BD4FF40060ADE7C1
:103080001F2B9CDD0F2ED8BF4FF0FF3697E7102384
:10309000C3E7002520466562A5626563FEF7E0FD93
:1030A0006A464FF400012046CDE901552369009599
:1030B000039598476668CDE7000002400030024063
:1030C0000080034000800240844641EA000313F080
:1030D000030349D1403A23D30B6803604B68436034
:1030E0008B688360CB68C3600B6903614B69436184
:1030F0008B698361CB69C3610B6A03624B6A43626C
:103100008B6A8362CB6AC3620B6B03634B6B436353
:103110008B6B8363CB6BC36340304031403ADBD26F
:1031200030320BD30B6803604B6843608B6883605D
:10313000CB68C36010301031103AF3D20C3205D393
:1031400051F8043B40F8043B043AF9D2043208D069
:10315000D2071CBF11F8013B00F8013B01D30B88DB
:1031600003806046704700BF082A13D38B07B1D095
:1031700010F00303AED0C3F10403D21ADB071CBF67
:1031800011F8013B00F8013BA4D331F8023B20F8D1
:10319000023B9FE7043AD9D3013A11F8013B00F80A
:1031A000013BF9D20B7803704B7843708B788370B6
:1031B0006046704770B586074AD0541E002A41D039
:1031C000CAB2034601E0013C3CD303F8012B9D0742
:1031D000F9D1032C2FD9CDB20F2C05EB052505EB2A
:1031E000054538D9A4F1100C03F1100E1A462CF045
:1031F0000F064FEA1C1CB6441560103242F80C5CF6
:1032000042F8085C42F8045C7245F5D10CF1010209
:1032100014F00C0F04F00F0C03EB021213D0ACF1FE
:10322000040323F003030433134442F8045B9A427B
:10323000FBD10CF003042CB1C9B21C4403F8011BF0
:103240009C42FBD170BD64461346002CF4D1F9E7D3
:1032500003461446BDE71A46A446E0E720F0030102
:1032600010F00300C0F1000051F8043B00F1040C21
:103270004FEACC0C6FF000021CBF22FA0CF2134391
:103280004FF0010C4CEA0C2C4CEA0C4CA3EB0C025A
:1032900022EA030212EACC1204BF51F8043B0430C4
:1032A000F4D0C2F1000102EA0102B2FA82F2C2F1E4
:1032B0001F0200EBD2007047F8B500BF000000000D
:1032C0005FF800F0290200205FF800F0ED01002017
:1032D0005FF800F081010020ED150010611500106D
:1032E000951500108D160010CD150010E514001076
:1032F00015160010D1140010E50900101916001061
:10330000610D00103115001001160010B1150010EC
:0C331000050600102D06001055020010EC
:10331C00000000000100000002000000030000009B
:10332C00040000000500000006000000070000007B
:10333C000A0000000B0000000C0000000D00000053
:10334C000E0000000F0000000A2A2A2A2050414ECD
:10335C004943202A2A2A0A000A00000048617264A4
:10336C007761726520616C61726D20256420616CDF
:10337C00726561647920636C61696D65640000003D
:10338C0048617264206173736572740052656C6578
:10339C0061736500626F6F74325F773235713038EC
:1033AC0030000000322E322E300000007069636F46
:1033BC003200000062636D5F66726F6E7400000015
:1033CC004A756E20313220323032360006005250AF
:1033DC00D3F075429833001006005250E182887F7A
:1033EC00A033001006005250ABB36053B033001042
:1033FC0006005250BBFF3CB6B833001006005250CA
:10340C00861C0302C0330010060052505422A29DA9
:10341C00CC33001005005250DE65F468C03B001040
:10342C000D0A00005541525420737464696E0000FB
:10343C0055415254207374646F7574005541525445
:10344C0020737464696E202F207374646F7574001C
:10345C000600525053B4F4A14834001008005250E6
:10346C001200000008005250921000000000994514
:10347C00AB4E320BCF58561D6416FD5307749E315C
:10348C00AC3A357FC82C51696362FA27972D0E68C8
:10349C003C63A5265875C130F33B6A7E9059091CD4
:1034AC003B17A2525F01C644F44F6D0A2E5BB71E48
:1034BC0085151C50E10378464A4DD308292FB06A74
:1034CC0082611B24E6777F324D39D47CB976203368
:1034DC0012388B7D762EEF6BDD604425BE022747BC
:1034EC00154C8C09715AE81FDA144351C5735C36BC
:1034FC006E3DF7780A2B936EA1653820C2075B42AC
:10350C006949F00C0D5F941AA6113F54525ECB1B07
:10351C00F91060559D0604433648AF0D552ACC6F03
:10352C00FE6467219A720337313CA879EB28726DDF
:10353C004066D9232470BD358F3E167BEC5C751923
:10354C004712DE572304BA41884A110F7C05E54027
:10355C00D74B4E0EB35D2A18181381567B71E2348B
:10356C00D03F497AB4292D6C1F67862213228A67B3
:10357C00B86C2129DC7A453F7734EE7114568D13E3
:10358C00BF18265DDB0E424B7040E905840F1D4AC7
:10359C002F41B6044B57D212E019795C837B1A3E4B
:1035AC002835B1704C23D566E76D7E283D79A43C57
:1035BC0096370F72F2216B64596FC02A3A0DA348EB
:1035CC0091430806F5556C105E1BC75EAA54331167
:1035DC00011A985F650CFC49CE425707AD20346543
:1035EC00066E9F2B6278FB3DC9365073D6514F1433
:1035FC007D1FE45A1909804CB2472B02D125486033
:10360C007A6BE32E1E7D8738B5332C76417CD83906
:10361C00EA3273778E241761256ABC2F4608DF4D7A
:10362C00ED46740389501015221EBB5BF80A614FDE
:10363C005344CA013752AE179C1C0559FF7E663B9A
:10364C005430CD753026A9639B68022D6F27F66226
:10365C00C4695D2CA07F393A0B3192746853F11612
:10366C00C31D5A58A70B3E4E0C45950085004800CB
:10367C0029E0CC0000C0C00040C029E443F004C1E4
:10368C00C50307034300C420014046A0B20102C099
:10369C00EB40544047A0808027A09800E2A0216016
:0C36AC00DF0001B8D902580021601B01AA
:0836B800A0CBFF0F0100000090
:1036C000D8330010E4330010F0330010FC33001046
:1036D000083400101434001020340010703400102E
:0836E000683400105C34001096
:1036E8004FF050412DE9F0410027044616461D468B
:1036F800D1F8008009E02368C3E88F7F8CF3108835
:103708003046294600F008FAF0B92168EFF3108C2A
:1037180072B6D1E8CF2F0123002AFAD1C1E8423F7F
:10372800002AF6D1BFF35F8F94F904E0BEF1000FD1
:10373800E1DA0023226884F80480C2E88F3F8CF322
:1037480010880120BDE8F0810020BDE8F08100BFAD
:1037580030B501460468EFF3108C72B6D4E8CFEFA9
:103768000125BEF1000FF9D1C4E84E5FBEF1000F8C
:10377800F4D1BFF35F8F90F90440002C11DB0021D6
:103788000568C5E88F1F8CF310884FF0504C9CF9E2
:1037980000C0A44501D1084630BDBDE83040FFF760
:1037A8009FBF4FF05040006800230A680871C2E8C4
:1037B8008F3F8CF31088012030BD00BF0368EFF302
:1037C800108272B6D3E8CFCF0121BCF1000FF9D136
:1037D800C3E84C1FBCF1000FF4D1BFF35F8F4FF06B
:1037E800FF0C0023016880F804C0C1E88F3F82F312
:1037F800108840BF704700BF53B94AB9002908BFB5
:1038080000281CBF4FF0FF314FF0FF3000F082B9A5
:10381800ADF1080C6DE904CE00F006F8DDF804E01F
:10382800DDE9022304B070472DE9F04F099D0C46ED
:10383800002B4DD18A420F4684469646B2FA82F34F
:1038480060D94BB102FA03FEC3F120029F4000FA8F
:1038580003FC20FA02F217434FEA1E461FFA8EF4C1
:103868004FEA1C42B7FBF6F106FB117701FB04F0A7
:1038780042EA0742904208D91EEB020201F1FF37E3
:1038880002D2904200F231813946121A1FFA8CFC9A
:10389800B2FBF6F006FB102200FB04F44CEA024CE3
:1038A800644508D91EEB0C0C00F1FF3202D26445C6
:1038B80000F21E81104640EA0140ACEB040C0021E6
:1038C80025B12CFA03F30022C5E90032BDE8F08FD8
:1038D8008B4205D90DB1C5E9000100210846F5E77D
:1038E800B3FA83F100294DD1A342C0F0F38090428E
:1038F80080F0F080064623460846002DE6D0C5E94C
:103908000063E3E7002B40F0A3808A1A4FEA1E47C2
:103918001FFA8EF60121B2FBF7F407FB14204FEAD9
:103928001C4242EA004206FB04F090420FD91EEB0B
:10393800020204F1FF382CBF4FF001094FF00009D3
:10394800904203D9B9F1000F00F0CC804446121A16
:103958001FFA8CFCB2FBF7F007FB102200FB06F6FF
:103968004CEA024C664508D91EEB0C0C00F1FF32FC
:1039780002D2664500F2B3801046ACEB060C40EA72
:1039880004409DE7C1F120068B4004FA01FE22FAAB
:1039980006F720FA06FCF4408A401F434EEA0C035F
:1039A80000FA01FE4FEA17484FEA13491FFA87FC4D
:1039B800B4FBF8F008FB104449EA044400FB0CF996
:1039C800A1450ED93C1900F1FF3A2CBF4FF0010B6D
:1039D8004FF0000BA14503D9BBF1000F00F08B801D
:1039E8005046A4EB09041FFA83F9B4FBF8F308FB6B
:1039F800134403FB0CFC49EA0444A44506D93C19CA
:103A080003F1FF3801D2A4457BD8434643EA00407E
:103A1800A4EB0C04A0FB02984445CC46434602D3D1
:103A280006D1CE4504D20138B9EB020C68EB070386
:103A3800002D6CD0BEEB0C0264EB030422FA01F3F8
:103A480004FA06F6CC4000211E43C5E900643DE7B0
:103A580002FA03FEC3F1200104FA03F200FA03FCA0
:103A6800CC404FEA1E4720FA01F11FFA8EF6B4FB4C
:103A7800F7F00A4307FB1044110C41EA044100FB2C
:103A880006F48C420ED91EEB010100F1FF382CBF61
:103A98004FF001094FF000098C4202D9B9F1000F2B
:103AA8002CD04046091B92B2B1FBF7F407FB141166
:103AB80042EA014204FB06F1914207D91EEB0202D9
:103AC80004F1FF3801D291421ED84446521A44EA02
:103AD800004120E7861A64EB030301200DE7F44454
:103AE80002384AE7023C724431E702397244CCE6B4
:103AF800F4440238DFE602383C4472E70238714485
:103B0800D0E7023B3C4481E7023C7244DEE72946A9
:103B1800DCE600BF704700BF5FF800F091100010AE
:103B2800100000000000000000000100000000007C
:103B3800000000000000020000000000000000007B
:103B48000000030000000000000000000000FF006B
:103B58000000000001B5486801318E4600477046F4
:103B680009380149884701BD1D09001000000000FF
:103B7800000000000000000000000000000000003D
:103B8800D8050020751A0010791B0010C51A0010FE
:103B9800891B001000000000000100000000000068
:043BA8000000000019
:103BAC00D3DEFFFFFE010000FF0100008CC5FFFF0C
:043BBC00793512AB9A
:040000051000014D99
:00000001FF
